:020000020000FC
:100000000C9433000C9432000C9432000C946B006E
:10005C000C946D000C943200189541E24EBF4FEF9A
:10006C004DBF4FEF47B94FEF40BB41B9442741BBA0
:10007C0042B908E394D0A3D0BCD008E390D09FD071
:10008C00AFD008E38CD09BD008E389D098D008E09F
:10009C0086D095D001E083D092D006E080D08FD06E
:1000AC000EE07DD08CD002E581D089D000E57ED0E9
:1000BC0086D00DE47BD083D00AE378D080D000E2E8
:1000CC0075D07DD078940C94A800339518954FB7C3
:1000DC004F93DF93CF939F938F93809100029091D6
:1000EC0001020196813A47E0940709F501E057D0E7
:1000FC0066D006E054D063D00EE051D060D002E55B
:10010C0055D05DD000E552D05AD00DE44FD057D029
:10011C000AE34CD054D000E249D051D00E94BC002C
:10012C003327C0E0D2E044274993488304C080932E
:10013C000002909301028F919F91CF91DF914F918B
:10014C004FBF1895C0E0D2E044274993488340E262
:10015C00409369004DB344604DBB40E044BD42E068
:10016C0045BD41E040936E007894FFCF132F50E0D3
:10017C0020E0103031F453951F93203039F0122FBA
:10018C00F7CF1A30C0F31A502F5FFBCF1F91012FFE
:10019C00005D0CD014D05A955030C1F7089501BBB6
:1001AC001FD0169A1DD016981BD0089501BB179A14
:1001BC0017D0169A15D0169813D0179808950F9338
:1001CC00002700BB01BB159A0BD0169A09D00FB1B2
:1001DC00169807FDF9CF15980FEF00BB0F910895F6
:1001EC008F939F939FE08CE90197F1F79F918F91EB
:0E01FC000895F6DFF5DFF4DFF3DFF2DF08959C
:00000001FF
