:020000020000FC
:100000000C9437000C9475000C9470000C947A00DA
:10005C000C947C000C9436000C9436000C943600F6
:10006C00189541E24EBF4FEF4DBF4FEF47B94FEFE1
:10007C0040BB41B9442741BB42B908E3A9D0B8D031
:10008C00D1D008E3A5D0B4D0C4D008E3A1D0B0D06F
:10009C0008E39ED0ADD008E09BD0AAD001E098D068
:1000AC00A7D006E095D0A4D00EE092D0A1D002E566
:1000BC0096D09ED000E593D09BD00DE490D098D0F4
:1000CC000AE38DD095D000E28AD092D078940C942B
:1000DC00C10018956130E9F361E0745118956130F5
:1000EC00C1F361E07C5E1895339518954FB74F932B
:1000FC00DF93CF939F938F93809100029091010295
:10010C000196813A47E0940759F501E061D070D02F
:10011C0006E05ED06DD00EE05BD06AD002E55FD019
:10012C0067D000E55CD064D00DE459D061D00AE30F
:10013C0056D05ED000E253D05BD00E94D50073172E
:10014C0039F43327C0E0D2E04427499348830CC0EC
:10015C00731718F083950C94A7008A950C94A7003C
:10016C0080930002909301028F919F91CF91DF9128
:10017C004F914FBF1895C0E0D2E044274993488374
:10018C0040E2409369004DB344604DBB40E044BD38
:10019C0042E045BD41E040936E007894FFCF132FB1
:1001AC0050E020E0103031F453951F93203039F09B
:1001BC00122FF7CF1A30C0F31A502F5FFBCF1F91BD
:1001CC00012F005D0CD014D05A955030C1F7089512
:1001DC0001BB1FD0169A1DD016981BD0089501BBD9
:1001EC00179A17D0169A15D0169813D017980895F9
:1001FC000F93002700BB01BB159A0BD0169A09D0A0
:10020C000FB1169807FDF9CF15980FEF00BB0F91A2
:10021C0008958F939F939FE08CE90197F1F79F913D
:10022C008F910895F6DFF5DFF4DFF3DFF2DF089549
:00000001FF
