:020000020000FC
:100000000C9437000C9497000C9492000C949C0074
:10005C000C949E000C9436000C9436000C943600D4
:10006C00189580E041E24EBF4FEF4DBF4FEF47B9BF
:10007C004FEF40BB41B9442741BB42B908E3CED056
:10008C00DDD0F6D008E3CAD0D9D0E9D008E3C6D089
:10009C00D5D008E3C3D0D2D008E0C0D0CFD001E097
:1000AC00BDD0CCD006E0BAD0C9D00EE0B7D0C6D007
:1000BC0002E5BBD0C3D000E5B8D0C0D00DE4B5D0BC
:1000CC00BDD00AE3B2D0BAD000E2AFD0B7D048E08E
:1000DC0040930A014AE440939800442740939900C6
:1000EC0041E04093910041E84093900041E04093FF
:1000FC00710040E14FEF4DB94FEF40939A00442708
:10010C0040939B0041E04093910041E2409390006A
:10011C0078940C94E70018956130E9F361E0745120
:10012C0018956130C1F361E07C5E18953395189594
:10013C004FB74F93DF93CF939F938F938091000290
:10014C00909101020196813A47E0940779F501E01C
:10015C0065D074D006E062D071D00EE05FD06ED066
:10016C0002E563D06BD000E560D068D00DE45DD0C3
:10017C0065D00AE35AD062D000E257D05FD00E941B
:10018C00FB00731759F48093980080939A003327DF
:10019C00C0E0D2E04427499348830CC0731718F091
:1001AC0083950C94C9008A950C94C9008093000225
:1001BC00909301028F919F91CF91DF914F914FBFFF
:1001CC001895C0E0D2E044274993488340E240931D
:1001DC0069004DB344604DBB40E044BD42E045BDB9
:1001EC0041E040936E007894FFCF132F50E020E055
:1001FC00103031F453951F93203039F0122FF7CF74
:10020C001A30C0F31A502F5FFBCF1F91012F005DE6
:10021C000CD014D05A955030C1F7089501BB1FD0A3
:10022C00169A1DD016981BD0089501BB179A17D09B
:10023C00169A15D0169813D0179808950F93002777
:10024C0000BB01BB159A0BD0169A09D00FB11698AA
:10025C0007FDF9CF15980FEF00BB0F9108958F9301
:10026C009F939FE08CE90197F1F79F918F910895EF
:0C027C00F6DFF5DFF4DFF3DFF2DF0895BA
:00000001FF
