:020000020000FC
:100000004FEF4DBF41E24EBF40EF40930A014FEF2B
:1000100047B948B93FEE11271430E1F330930B0193
:100020004FEF4A95F1F7409109014F704F3059F069
:1000300021E00027043039F0542F522341F003957A
:10004000220F0C941A00330F13950C940C001330EC
:1000500049F0033051F0402F440F400F410F4F5FE4
:100060000C94400040E00C944000103029F0113016
:1000700031F040E00C94400040E00C94400040E03F
:0600800048B90C940A00CF
:00000001FF
