:020000020000FC
:040000000C9430002C
:04000C000C945D00F3
:10005C000C94740050E060E011E21EBF1FEF1DBF56
:10006C001FEF17B970E00FEF00BB01B9002701BB00
:10007C0002B908E393D0A2D0BBD008E38FD09ED0B6
:10008C00AED008E38BD09AD008E388D097D008E0A4
:10009C0085D094D001E082D091D006E07FD08ED074
:1000AC000EE07CD08BD000E380D088D044C0639528
:1000BC0003E47BD083D003E478D080D003E475D004
:1000CC007DD003E472D07AD003E46FD077D003E410
:1000DC006CD074D003E469D071D040C01FB71F93AB
:1000EC00DF93CF939F938F938091020290910302A1
:1000FC000196813A17E0910709F401C011C0C2E0E2
:10010C00D2E011271993188380910002909101027B
:10011C0001968093000290930102639520C004C065
:10012C0080930202909303028F919F91CF91DF9164
:10013C001F911FBF1895C2E0D2E0112719931883A5
:10014C00C0E0D2E011271993188310E014BD12E01F
:10015C0015BD11E010936E00789400C0FFCF01E044
:10016C001DD02CD0462F30E050E0403031F4339588
:10017C004F93503039F0452FF7CF4A30C0F34A50E7
:10018C005F5FFBCF4F91042F005D0FD017D03A95D6
:10019C003030C1F700EC02D011D0C6CF01BB1FD05C
:1001AC00169A1DD016981BD0089501BB179A17D01C
:1001BC00169A15D0169813D0179808950F930027F8
:1001CC0000BB01BB159A0BD0169A09D00FB116982B
:1001DC0007FDF9CF15980FEF00BB0F9108958F9382
:1001EC009F939FE08CE90197F1F79F918F91089570
:0C01FC00F6DFF5DFF4DFF3DFF2DF08953B
:00000001FF
