:020000020000FC
:100000000C9433000C9432000C9432000C946A006F
:10005C000C946C000C943200189501E20EBF0FEF5B
:10006C000DBF0FEF07B978940FEF00BB01B9002754
:10007C0001BB02B948E397D0A6D0BFD048E393D0D8
:10008C00A2D0B2D048E38FD09ED048E38CD09BD086
:10009C0048E089D098D041E086D095D046E083D016
:1000AC0092D04EE080D08FD042E784D08CD040E705
:1000BC0081D089D04DE67ED086D04AE37BD083D0E8
:1000CC0040E278D080D03CC0339518950FB70F9391
:1000DC00DF93CF939F938F938091000290910102B5
:1000EC000196813A07E0900701F541E05CD06BD0B6
:1000FC0046E059D068D04EE056D065D042E75AD091
:10010C0062D040E757D05FD04DE654D05CD04AE384
:10011C0051D059D040E24ED056D038B93327C0E038
:10012C00D2E000270993088304C0809300029093C7
:10013C0001028F919F91CF91DF910F910FBF189575
:10014C00C0E0D2E000270993088300E20093690025
:10015C000DB304600DBB00E004BD02E005BD01E081
:10016C0000936E007894FFCF41E01DD02CD0132F5C
:10017C0050E020E0103031F453951F93203039F0CB
:10018C00122FF7CF1A30C0F31A502F5FFBCF1F91ED
:10019C00412F405D0FD017D05A955030C1F740EC2D
:1001AC0002D011D0C6CF01BB1FD0169A1DD0169805
:1001BC001BD0089501BB179A17D0169A15D0169814
:1001CC0013D0179808950F93002700BB01BB159A05
:1001DC000BD0169A09D00FB1169807FDF9CF1598C8
:1001EC000FEF00BB0F9108958F939F939FE08CE9C5
:1001FC000197F1F79F918F910895F6DFF5DFF4DF0A
:06020C00F3DFF2DF0895AC
:00000001FF
