:020000020000FC
:0C0000000C9433000C9432000C9432007D
:10005C000C94E0000C94320018951FEF1DBF11E2B8
:10006C001EBF1FEF17B9C0E0D2E0112719931883F8
:10007C0010E014BD12E015BD11E010936E007894E1
:10008C0010EF10930A011FEF10BB11B9112711BB10
:10009C0012B908E337D146D15FD108E333D142D14D
:1000AC0052D108E32FD13ED108E32CD13BD108E04B
:1000BC0029D138D101E026D135D106E023D132D176
:1000CC000EE020D12FD102E324D12CD101E321D198
:1000DC0029D102E31ED126D101E31BD123D100E2A9
:1000EC0018D120D101E315D11DD107E312D11AD1BA
:1000FC0003E70FD117D101E30CD114D100E209D1E0
:10010C0011D100E206D10ED100E203D10BD100E2F5
:10011C0000D108D102E4FDD005D104E3FAD002D11C
:10012C0000ECF0D0FFD006E5F4D0FCD005E6F1D021
:10013C00F9D00EE6EED0F6D004E6EBD0F3D009E61B
:10014C00E8D0F0D00EE6E5D0EDD007E6E2D0EAD06C
:10015C0000E2DFD0E7D00DE4DCD0E4D001E6D9D06A
:10016C00E1D003E6D6D0DED008E6D3D0DBD009E66A
:10017C00D0D0D8D00EE6CDD0D5D005E6CAD0D2D0CE
:10018C0070E060E0C3E0D2E0112719931883C2E05D
:10019C00D2E01127199318831091030211E01093E8
:1001AC00030261E077C0603071F1109102021330EC
:1001BC0054F5F2CF1FB71F93DF93CF939F938F9379
:1001CC008091000290910102019684381EE1910702
:1001DC0079F410910302113029F4109102021F5F7F
:1001EC0010930202C0E0D2E011271993188304C0C7
:1001FC0080930002909301028F919F91CF91DF9198
:10020C001F911FBF189560E070E0C2E0D2E011278B
:10021C0019931883C3E0D2E011271993188308E3CC
:10022C0071D080D099D008E36DD07CD08CD008E30D
:10023C0069D078D008E366D075D008E063D072D06E
:10024C0001E060D06FD006E05DD06CD00EE05AD0EB
:10025C0069D003E55ED066D005E65BD063D00CE6D2
:10026C0058D060D005E655D05DD003E652D05AD0B8
:10027C0004E74FD057D000E24CD054D009E449D019
:10028C0051D004E746D04ED005E643D04BD00DE616
:10029C0040D048D03FEE1127143059F130930B0168
:1002AC004FEF4A95F1F7409109014F70403F11F023
:1002BC0021E00027043039F0542F522341F00395EC
:1002CC00220F0C946001330F13950C945201613082
:1002DC0099F01330F9F2033039F0402F440F400FEE
:1002EC00410F4F5F0C9484011130A1F644270C94FC
:1002FC008401613011F0CECF60E055CF48B90C9439
:10030C005001FFCF01BB1FD0169A1DD016981BD0E1
:10031C00089501BB179A17D0169A15D0169813D0BA
:10032C00179808950F93002700BB01BB159A0BD0AB
:10033C00169A09D00FB1169807FDF9CF15980FEF43
:10034C0000BB0F9108958F939F939FE08CE90197C9
:10035C00F1F79F918F910895F6DFF5DFF4DFF3DF6E
:04036C00F2DF08951F
:00000001FF
