:020000020000FC
:100000000C9402000FEF0DBF01E20EBF0FEF00BB1B
:1000100001B9002701BB02B908E35BD06AD083D0E5
:1000200008E357D066D076D008E353D062D008E317
:1000300050D05FD008E04DD05CD001E04AD059D01C
:1000400006E047D056D00EE044D053D04FEF4DBF1E
:1000500041E24EBF40EF40930A014FEF47B948B924
:100060003FEE11271430E1F330930B014FEF4A9527
:10007000F1F7409109014F704F3059F021E000270E
:10008000043039F0542F522341F00395220F0C9481
:100090004000330F13950C943200133049F00330B5
:1000A00051F0402F440F400F410F4F5F0C946600FA
:1000B00040E00C946600103029F0113031F040E03F
:1000C0000C94660040E00C94660040E048B90C9443
:1000D000300001BB1FD0169A1DD016981BD0089572
:1000E00001BB179A17D0169A15D0169813D01798E7
:1000F00008950F93002700BB01BB159A0BD0169AE9
:1001000009D00FB1169807FDF9CF15980FEF00BB76
:100110000F9108958F939F939FE08CE90197F1F7DA
:100120009F918F910895F6DFF5DFF4DFF3DFF2DFC3
:02013000089530
:00000001FF
