:020000020000FC
:0C0000000C9433000C9432000C9432007D
:10005C000C943A000C943200189501E20EBF0FEF8D
:10006C000DBF0FEF07B92CC00FB70F93DF93CF93D2
:10007C009F938F9380910202909103020196843892
:10008C000EE1900791F4A095B095A8B9C2E0D2E02A
:10009C000027099308838091000290910102019638
:1000AC00809300029093010204C08093020290930B
:1000BC0003028F919F91CF91DF910F910FBF1895F4
:1000CC00AFE8B3EBC2E0D2E0002709930883C0E0AD
:1000DC00D2E000270993088300E004BD02E005BDCF
:0A00EC0001E000936E007894FFCF4E
:00000001FF
