:020000020000FC
:100000000C946A010C94E9010C94EB010C943E00F1
:040010000C943E000E
:04005C000C94C90136
:100074000C9494020C943E00189501BB15D1169A69
:1000840013D1169811D1089501BB179A0DD1169A60
:100094000BD1169809D1179808950F93002700BB28
:1000A40001BB159A01D1169AFFD00FB1169807FD1E
:1000B400F9CF15980FEF00BB0F91089508E3DDDF2A
:1000C400ECDFFBD008E3D9DFE8DFEED008E3D5DFCF
:1000D400E4DF08E3D2DFE1DF08E0CFDFDEDF01E0C9
:1000E400CCDFDBDF06E0C9DFD8DF0EE0C6DFD5DF1B
:1000F40008950E94600002E3C7DFCFDF01E3C4DF9D
:10010400CCDF02E3C1DFC9DF01E3BEDFC6DF00E20B
:10011400BBDFC3DF01E3B8DFC0DF07E3B5DFBDDF6B
:1001240003E7B2DFBADF01E3AFDFB7DF00E2ACDF42
:10013400B4DF00E2A9DFB1DF00E2A6DFAEDF00E258
:10014400A3DFABDF02E4A0DFA8DF04E39DDFA5DFCC
:1001540000EC93DFA2DF06E597DF9FDF05E694DF7F
:100164009CDF0EE691DF99DF04E68EDF96DF09E679
:100174008BDF93DF0EE688DF90DF07E685DF8DDF18
:1001840000E282DF8ADF0DE47FDF87DF01E67CDFC8
:1001940084DF03E679DF81DF08E676DF7EDF09E6C8
:1001A40073DF7BDF0EE670DF78DF05E66DDF75DF7A
:1001B40000E26ADF72DF08950E94600003E564DFF5
:1001C4006CDF05E661DF69DF0CE65EDF66DF05E60E
:1001D4005BDF63DF03E658DF60DF04E755DF5DDFE5
:1001E40000E252DF5ADF09E44FDF57DF04E74CDF58
:1001F40054DF05E649DF51DF0DE646DF4EDF0895A3
:100204000E9460000FE440DF48DF05E73DDF45DF83
:1002140004E73ADF42DF00E237DF3FDF0FE634DF97
:100224003CDF06E631DF39DF00E22EDF36DF03E5AF
:100234002BDF33DF04E728DF30DF0FE625DF2DDF98
:1002440003E622DF2ADF0BE61FDF27DF00EC15DFE2
:1002540024DF03E519DF21DF08950E94600009E42B
:1002640013DF1BDF0EE610DF18DF03E70DDF15DFFA
:1002740005E60ADF12DF02E707DF0FDF04E704DF2A
:100284000CDF00E201DF09DF03E6FEDE06DF0FE636
:10029400FBDE03DF09E6F8DE00DF0EE6F5DEFDDE59
:1002A40003E7F2DEFADE08958F939F939FE08CE9D3
:1002B4000197F1F79F918F910895F6DFF5DFF4DF51
:1002C400F3DFF2DF0895F9DFF8DFF7DFF6DF0895F3
:1002D4001FEF1DBF11E21EBF1FEF17B9C0E0D2E030
:1002E40011271993188310E014BD12E015BD11E015
:1002F40010936E00789412E0109369001DB311609E
:100304001DBB789412E0109369001DB312601DBBED
:10031400789410EF10930A011FEF10BB11B9112745
:1003240011BB12B90E948202442740EC40937C0026
:10033400442748E040937B0044274DE840937A00EB
:1003440078940E947B0070E060E0C3E0D2E0112763
:1003540019931883C2E0D2E0112719931883C4E0DB
:10036400D2E0112719931883C5E0D2E0112719931D
:10037400188311E0109303020E9434027F3F29F492
:100384001091020213300CF4F4CF0C94ED011FB75A
:100394001F93DF93CF939F938F938091000290914B
:1003A4000102019684381EE1910731F4C0E0D2E0E5
:1003B40011271993188304C08093000290930102BB
:1003C4008F919F91CF91DF911F911FBF189561E08D
:1003D400189561E0189560E07FEFC2E0D2E0112744
:1003E40019931883C3E0D2E01127199318830E944C
:1003F400DE006FEF00C06A956030E9F70E94AD023D
:100404000E94650198B9FACF872FC6E0D2E00E9416
:1004140078028881282F872FC6E0D2E00E947802D4
:100424008881382F303009F018C060E0C2E0D2E093
:10043400112719931883C3E0D2E011271993188365
:100444000E94020151E050930302613029F050915F
:10045400020253300CF4F6CFBECF60E00E942F01AD
:1004640000C0FFCF3FEE11271430E1F130930B01B0
:100474004FEF4A95F1F7409109014F704F3059F011
:1004840021E00027043039F0542F522341F0039522
:10049400220F0C944402330F13950C94360213303C
:1004A40049F0033059F0402F440F400F410F4F5F84
:1004B4000C94700274E1709305020895103031F0C9
:1004C400113041F074E170930502089574E1709362
:1004D4000502089570E0709305020895742F7093D7
:1004E400050208957FEF7093050208955F934F937B
:1004F4005527499153955817E1F74F915F91089506
:10050400E6E0F2E050E042E0419341E0419353954C
:100514005530C9F7E0E1F2E050E0519353955A3079
:10052400E1F708954F935F93B0917900A09178001B
:1005340091E04AE050E0A417B50730F045EF50E0F1
:10054400A417B5071CF404C091E002C09FEF00C0DB
:100554005F914F9118954F9340917A004064409376
:060564007A004F9108959A
:00000001FF
