:020000020000FC
:0C0000000C9433000C9432000C9432007D
:10005C000C94F6000C94320018958FEF8DBF81E252
:10006C008EBF8FEF87B9C0E0D2E088278993888351
:10007C0080E084BD82E085BD81E080936E00789441
:10008C000E94E40080EF80930A018FEF80BB81B95E
:10009C00882781BB82B908E34BD15AD173D108E3CD
:1000AC0047D156D166D108E343D152D108E340D1B0
:1000BC004FD108E03DD14CD101E03AD149D106E015
:1000CC0037D146D10EE034D143D102E338D140D1FF
:1000DC0001E335D13DD102E332D13AD101E32FD145
:1000EC0037D100E22CD134D101E329D131D107E34E
:1000FC0026D12ED103E723D12BD101E320D128D156
:10010C0000E21DD125D100E21AD122D100E217D193
:10011C001FD100E214D11CD102E411D119D104E396
:10012C000ED116D100EC04D113D106E508D110D1B3
:10013C0005E605D10DD10EE602D10AD104E6FFD0B9
:10014C0007D109E6FCD004D10EE6F9D001D107E6BF
:10015C00F6D0FED000E2F3D0FBD00DE4F0D0F8D016
:10016C0001E6EDD0F5D003E6EAD0F2D008E6E7D010
:10017C00EFD009E6E4D0ECD00EE6E1D0E9D005E60C
:10018C00DED0E6D030E020E0C3E0D2E088278993CF
:10019C008883C2E0D2E08827899388838091030208
:1001AC0081E08093030221E08BC0203029F0809104
:1001BC0002028330F4F5F2CF0C941F01E4E0F2E07C
:1001CC0090E082E0819381E0819393959530C9F71B
:1001DC00EEE0F2E090E0919393959A30E1F7089578
:1001EC008FB78F93DF93CF939F938F938091000260
:1001FC0090910102019684388EE1980779F48091F0
:10020C000302813029F4809102028F5F80930202F5
:10021C00C0E0D2E088278993888304C080930002D1
:10022C00909301028F919F91CF91DF918F918FBF0E
:10023C00189520E030E0C2E0D2E0882789938883CB
:10024C00C3E0D2E088278993888308E371D080D0FB
:10025C0099D008E36DD07CD08CD008E369D078D0ED
:10026C0008E366D075D008E063D072D001E060D0AE
:10027C006FD006E05DD06CD00EE05AD069D003E5AB
:10028C005ED066D005E65BD063D00CE658D060D06B
:10029C0005E655D05DD003E652D05AD004E74FD0D6
:1002AC0057D000E24CD054D009E449D051D004E7E7
:1002BC0046D04ED005E643D04BD00DE640D048D0CA
:1002CC007FEE5527543059F170930B018FEF8A95BF
:1002DC00F1F7809109018F70803F11F061E04427A4
:1002EC00443039F0982F962341F04395660F0C94C7
:1002FC007601770F53950C946801213099F05330A7
:10030C00F9F2433039F0842F880F840F850F8F5FFB
:10031C000C949A015130A1F688270C949A01213043
:10032C0011F0CECF20E041CF88B90C946601FFCFFD
:10033C0001BB1FD0169A1DD016981BD0089501BB77
:10034C00179A17D0169A15D0169813D01798089597
:10035C000F93002700BB01BB159A0BD0169A09D03E
:10036C000FB1169807FDF9CF15980FEF00BB0F9141
:10037C0008958F939F939FE08CE90197F1F79F91DC
:10038C008F910895F6DFF5DFF4DFF3DFF2DF0895E8
:10039C009F938F939927899193959117E1F78F915B
:0403AC009F91089580
:00000001FF
