:020000020000FC
:100000000C946A010C94E0010C94E2010C943E0003
:040010000C943E000E
:04005C000C94B70148
:100074000C948D020C943E00189501BB15D1169A70
:1000840013D1169811D1089501BB179A0DD1169A60
:100094000BD1169809D1179808950F93002700BB28
:1000A40001BB159A01D1169AFFD00FB1169807FD1E
:1000B400F9CF15980FEF00BB0F91089508E3DDDF2A
:1000C400ECDFFBD008E3D9DFE8DFEED008E3D5DFCF
:1000D400E4DF08E3D2DFE1DF08E0CFDFDEDF01E0C9
:1000E400CCDFDBDF06E0C9DFD8DF0EE0C6DFD5DF1B
:1000F40008950E94600002E3C7DFCFDF01E3C4DF9D
:10010400CCDF02E3C1DFC9DF01E3BEDFC6DF00E20B
:10011400BBDFC3DF01E3B8DFC0DF07E3B5DFBDDF6B
:1001240003E7B2DFBADF01E3AFDFB7DF00E2ACDF42
:10013400B4DF00E2A9DFB1DF00E2A6DFAEDF00E258
:10014400A3DFABDF02E4A0DFA8DF04E39DDFA5DFCC
:1001540000EC93DFA2DF06E597DF9FDF05E694DF7F
:100164009CDF0EE691DF99DF04E68EDF96DF09E679
:100174008BDF93DF0EE688DF90DF07E685DF8DDF18
:1001840000E282DF8ADF0DE47FDF87DF01E67CDFC8
:1001940084DF03E679DF81DF08E676DF7EDF09E6C8
:1001A40073DF7BDF0EE670DF78DF05E66DDF75DF7A
:1001B40000E26ADF72DF08950E94600003E564DFF5
:1001C4006CDF05E661DF69DF0CE65EDF66DF05E60E
:1001D4005BDF63DF03E658DF60DF04E755DF5DDFE5
:1001E40000E252DF5ADF09E44FDF57DF04E74CDF58
:1001F40054DF05E649DF51DF0DE646DF4EDF0895A3
:100204000E9460000FE440DF48DF05E73DDF45DF83
:1002140004E73ADF42DF00E237DF3FDF0FE634DF97
:100224003CDF06E631DF39DF00E22EDF36DF03E5AF
:100234002BDF33DF04E728DF30DF0FE625DF2DDF98
:1002440003E622DF2ADF0BE61FDF27DF00EC15DFE2
:1002540024DF03E519DF21DF08950E94600009E42B
:1002640013DF1BDF0EE610DF18DF03E70DDF15DFFA
:1002740005E60ADF12DF02E707DF0FDF04E704DF2A
:100284000CDF00E201DF09DF03E6FEDE06DF0FE636
:10029400FBDE03DF09E6F8DE00DF0EE6F5DEFDDE59
:1002A40003E7F2DEFADE08958F939F939FE08CE9D3
:1002B4000197F1F79F918F910895F6DFF5DFF4DF51
:1002C400F3DFF2DF0895F9DFF8DFF7DFF6DF0895F3
:1002D4001FEF1DBF11E21EBF1FEF17B9C0E0D2E030
:1002E40011271993188310E014BD12E015BD11E015
:1002F40010936E00789412E0109369001DB311609E
:100304001DBB789412E0109369001DB312601DBBED
:10031400789410EF10930A011FEF10BB11B9112745
:1003240011BB12B90E947B020E947B0070E060E066
:10033400C3E0D2E0112719931883C2E0D2E0112759
:1003440019931883C4E0D2E011271993188311E09C
:10035400109303020E942F0271302CF410910202B8
:1003640013300CF4F4CF0C94E4011FB71F93DF9304
:10037400CF939F938F9380910002909101020196F5
:1003840084381EE1910779F410910302113029F4A5
:10039400109102021F5F10930202C0E0D2E0112705
:1003A4001993188304C080930002909301028F91E3
:1003B4009F91CF91DF911F911FBF189561E0189510
:1003C40061E0189560E070E0C2E0D2E01127199373
:1003D4001883C3E0D2E01127199318830E94DE002A
:1003E4006FEF00C06A956030E9F70E945F010E94D8
:1003F4002F020E9465017F3FC1F378B9F6CF872FA2
:10040400C5E0D2E00E9471028881282F872FC5E0C1
:10041400D2E00E9471028881382F303009F018C070
:1004240060E0C2E0D2E0112719931883C3E0D2E060
:100434001127199318830E94020151E0509303027B
:10044400613029F05091020253300CF4F6CFBACF48
:1004540060E00E942F0100C0FFCF3FEE112714304F
:10046400E1F130930B014FEF4A954030E9F74091A9
:1004740009014F704F3059F021E00027043039F062
:10048400542F522341F00395220F0C944002330F52
:1004940013950C943102112F102F012F133049F0B2
:1004A400033061F0402F440F400F410F4F5F0C9415
:1004B4006D02033061F344E10C946D02103029F0B5
:1004C400113031F044E10C946D0244E10C946D025E
:1004D40040E00C946D02742F08957FEF08955F93AC
:1004E4004F935527499153955817E1F74F915F91D1
:1004F4000895E5E0F2E050E042E0419341E04193A9
:1005040053955530C9F7EFE0F2E050E0519353951D
:100514005A30E1F708954F935F93A0917800B0911A
:10052400790040E050E0A417B50731F04FEF50E0F8
:10053400A417B50719F0189570E0189570E0189590
:00000001FF
