:020000020000FC
:100000000C9402000FEF0DBF01E20EBF60E070E044
:1000100080E00FEF00BB01B9002701BB02B908E384
:10002000B9D0C8D0E1D008E3B5D0C4D0D4D008E36B
:10003000B1D0C0D008E3AED0BDD008E0ABD0BAD0CC
:1000400001E0A8D0B7D006E0A5D0B4D00EE0A2D091
:10005000B1D000E3A6D0AED000EC9CD0ABD04FEF37
:100060004DBF41E24EBF40EF40930A014FEF47B909
:1000700048B901C080E03FEE11270C943F001430D6
:10008000C9F330930B014FEF4A95F1F74091090105
:100090004F704F3059F021E00027043039F0542FD1
:1000A000522341F00395220F0C944D00330F13950A
:1000B0000C943F008130F9F2133089F00330A9F13C
:1000C000402F440F400F410F4F5F5AE0759F702D36
:1000D000740F042F005D65D06DD00C94A800003023
:1000E00041F0013061F0023079F0033099F00C9466
:1000F000A800670F70E00E94AB000C94A800671B7B
:1001000070E00E94AB0024C0679F602D70E00E94E9
:10011000AB001EC040E0671718F0671B4395FBCF8C
:10012000642F70E00E94AB0013C0103029F0113032
:1001300031F040E00C94A80040E00C94A8005AE094
:10014000759F702D740F00E32CD034D00C94A80050
:1001500081E00C943B0001E01DD02CD0462F90E0B4
:1001600050E0403031F493954F93503039F0452FA3
:10017000F7CF4A30C0F34A505F5FFBCF4F91042F57
:10018000005D0FD017D09A959030C1F700EC02D0E7
:1001900011D0089501BB1FD0169A1DD016981BD000
:1001A000089501BB179A17D0169A15D0169813D038
:1001B000179808950F93002700BB01BB159A0BD029
:1001C000169A09D00FB1169807FDF9CF15980FEFC1
:1001D00000BB0F9108958F939F939FE08CE9019747
:1001E000F1F79F918F910895F6DFF5DFF4DFF3DFEC
:0401F000F2DF08959D
:00000001FF
