:020000020000FC
:100000000C9402000FEF0DBF01E20EBF60E070E044
:1000100080E00FEF00BB01B9002701BB02B908E384
:100020006FD07ED097D008E36BD07AD08AD008E327
:1000300067D076D008E364D073D008E061D070D088
:1000400001E05ED06DD006E05BD06AD00EE058D003
:1000500067D000E35CD064D000EC52D061D04FEFA9
:100060004DBF41E24EBF40EF40930A014FEF47B909
:1000700048B93FEE11270C943E0080E01430C9F3DC
:1000800030930B014FEF4A95F1F7409109014F7002
:100090004F3059F021E00027043039F0542F52231B
:1000A00041F00395220F0C944C00330F13950C94E0
:1000B0003D00813019F3133091F0033099F0402F57
:1000C000440F400F410F4F5F5AE0759F702D740F22
:1000D00050E3450F042F1BD023D00C947D0040E04B
:1000E0000C947D00103029F0113031F040E00C9478
:1000F0007D0040E00C947D0040E081E00C943900EC
:1001000001BB1FD0169A1DD016981BD0089501BBB5
:10011000179A17D0169A15D0169813D017980895D5
:100120000F93002700BB01BB159A0BD0169A09D07C
:100130000FB1169807FDF9CF15980FEF00BB0F917F
:1001400008958F939F939FE08CE90197F1F79F911A
:100150008F910895F6DFF5DFF4DFF3DFF2DF089526
:00000001FF
