:020000020000FC
:100000000C9402000FEF0DBF01E20EBF60E070E044
:1000100080E00FEF00BB01B9002701BB02B908E384
:100020009BD0AAD0C3D008E397D0A6D0B6D008E31F
:1000300093D0A2D008E390D09FD008E08DD09CD080
:1000400001E08AD099D006E087D096D00EE084D027
:1000500093D000E388D090D000EC7ED08DD04FEFCD
:100060004DBF41E24EBF40EF40930A014FEF47B909
:1000700048B901C080E03FEE11270C943F001430D6
:10008000C9F330930B014FEF4A95F1F74091090105
:100090004F704F3059F021E00027043039F0542FD1
:1000A000522341F00395220F0C944D00330F13950A
:1000B0000C943F008130F9F2133089F00330E9F0FD
:1000C000402F440F400F410F4F5F5AE0759F702D36
:1000D000740F042F005D47D04FD00C949000003077
:1000E00021F0013041F00C949000670F70E00E9405
:1000F00093000C9490000C949000103029F0113073
:1001000031F040E00C94900040E00C9490005AE0F4
:10011000759F702D740F00E326D02ED00C949000A4
:1001200081E00C943B0001E017D026D0462F70E010
:1001300050E0403041F4042F005D15D01DD0503008
:1001400039F0452FF5CF4A30B0F34A505F5FFBCF0F
:1001500000EC02D011D0089501BB1FD0169A1DD01B
:1001600016981BD0089501BB179A17D0169A15D070
:10017000169813D0179808950F93002700BB01BB62
:10018000159A0BD0169A09D00FB1169807FDF9CF22
:1001900015980FEF00BB0F9108958F939F939FE0E9
:1001A0008CE90197F1F79F918F910895F6DFF5DFC4
:0801B000F4DFF3DFF2DF089534
:00000001FF
