:020000020000FC
:100000000C9402000FEF0DBF01E20EBF60E070E044
:1000100080E00FEF00BB01B9002701BB02B908E384
:10002000BCD0CBD0E4D008E3B8D0C7D0D7D008E359
:10003000B4D0C3D008E3B1D0C0D008E0AED0BDD0BA
:1000400001E0ABD0BAD006E0A8D0B7D00EE0A5D082
:10005000B4D000E3A9D0B1D000EC9FD0AED04FEF28
:100060004DBF41E24EBF40EF40930A0101C080E026
:100070003FEE11270C943C001430C9F330930B0170
:100080004FEF4A95F1F7409109014F704F3059F009
:1000900021E00027043039F0542F522341F003951A
:1000A000220F0C944A00330F13950C943C000E94CD
:1000B000F7000E94F7000E94F7000E94F7008130CD
:1000C000B9F2133089F00330A9F1402F440F400FEB
:1000D000410F4F5F5AE0759F702D740F042F005D24
:1000E00063D06BD00C94AB00003039F0013051F08C
:1000F000023069F0033089F02EC0670F70E00E9473
:10010000AE0029C0671B70E00E94AE0024C0679F4C
:10011000602D70E00E94AE001EC07030E1F040E043
:10012000671718F0671B4395FBCF642F70E00E94A0
:10013000AE0011C0103019F0113031F00CC060E089
:1001400070E00E94AE0007C05AE0759F702D00E37A
:100150002BD033D000C081E00C94380001E01DD0DA
:100160002CD0462F90E050E0403031F493954F93DF
:10017000503039F0452FF7CF4A30C0F34A505F5F17
:10018000FBCF4F91042F005D0FD017D09A95903080
:10019000C1F700EC02D011D0089501BB1FD0169A10
:1001A0001DD016981BD0089501BB179A17D0169A28
:1001B00015D0169813D0179808950F93002700BBF9
:1001C00001BB159A0BD0169A09D00FB1169807FDEE
:1001D000F9CF15980FEF00BB0F9108958F939F9360
:1001E0009FE08CE90197F1F79F918F910895F6DFD9
:0A01F000F5DFF4DFF3DFF2DF08951E
:00000001FF
