:020000020000FC
:100000000C9402000FEF0DBF01E20EBF60E070E044
:100010000FEF00BB01B9002701BB02B908E369D0AB
:1000200078D091D008E365D074D084D008E361D053
:1000300070D008E35ED06DD008E05BD06AD001E0FC
:1000400058D067D006E055D064D00EE052D061D0D1
:1000500000E356D05ED000EC4CD05BD04FEF4DBFEC
:1000600041E24EBF40EF40930A014FEF47B948B914
:100070003FEE11271430E1F330930B014FEF4A9517
:10008000F1F7409109014F704F3059F021E00027FE
:10009000043039F0542F522341F00395220F0C9471
:1000A0004800330F13950C943A00133091F003304D
:1000B00099F0402F440F400F410F4F5F5AE0759F5A
:1000C000702D740F50E3450F042F1AD022D00C94DA
:1000D000770040E00C947700103029F0113031F0B7
:1000E00040E00C94770040E00C94770040E00C94E2
:1000F000380001BB1FD0169A1DD016981BD008954A
:1001000001BB179A17D0169A15D0169813D01798C6
:1001100008950F93002700BB01BB159A0BD0169AC8
:1001200009D00FB1169807FDF9CF15980FEF00BB56
:100130000F9108958F939F939FE08CE90197F1F7BA
:100140009F918F910895F6DFF5DFF4DFF3DFF2DFA3
:02015000089510
:00000001FF
