:020000020000FC
:1000000029C000006D6163726F73000002006172AD
:1000100065000C0066756E00120072616E646F6D93
:100020002065787472612074657374730000180021
:100030004556454E4D4F52455445535453002E009E
:1000400072616E646F6D206578747261207465737F
:1000500074730000F0E0EEE370E082E08E0F7F1F2B
:10006000CFEFD1E2DEBFCDBF00C000E0F03011F431
:10007000E03001F1159125913F2F4E2F55915030D1
:1000800019F003950C943E003F934F930F93E12F8B
:10009000F22F00E0103049F7203039F74F915F918F
:1000A0006F91401718F0042FE52FF62F5817B1F76E
:0800B0006717A1F70C945A0038
:00000001FF
